:020000040000FA
:1000000018F09FE518F09FE518F09FE518F09FE5C0
:1000100018F09FE50000A0E120F11FE518F09FE532
:1000200058000000400000004400000048000000AC
:100030004C000000000000005000000054000000D0
:10004000FEFFFFEAFEFFFFEAFEFFFFEAFEFFFFEA18
:10005000FEFFFFEAFEFFFFEA4C009FE5DBF021E335
:1000600000D0A0E1000040E2D7F021E300D0A0E101
:10007000000040E2D1F021E300D0A0E1000040E226
:10008000D2F021E300D0A0E1010C40E2D3F021E363
:1000900000D0A0E1080040E210F021E300D0A0E190
:1000A00001AB4DE204009FE510FF2FE1E01F00408F
:1000B0008D01000070B42D48816801258901AA23B3
:1000C0005524002902DA0560C360C4600021016084
:1000D000C360C46026490A6A202632430A620A6A5B
:1000E0005206FCD521498031CD600B224260C360AD
:1000F000C4600560C360C46005224A60816849012C
:10010000FCD5816882684904490C1202120E0B2941
:1001100001D0002AFBD103210160C360C460816863
:100120008901FCD570BC70471048002180380160FF
:10013000032141600221016070470E480268FF21DF
:100140000A430260C2690A43C2617047704710B532
:1001500001F06CF8FFF7AEFF642001F093F8FFF7B1
:10016000E3FFFFF7EAFF10BC08BC184780C01FE0A0
:1001700080C11FE040C0FF3F10B5FFF7E8FF00F06F
:1001800018F800F024F800F0E7FCFAE710B500F0EA
:1001900044FC002808D000F056FC002802D000F0F3
:1001A00039FC01E0FFF7E8FFFFF7E6FF10BC08BCF1
:1001B000184710B500F0D9FD10BC08BC184710B5A1
:1001C00000F0CFFEF8E710B500F078FFF4E710B5C7
:1001D00000F0E7FFF0E700007847C0460020B0E3FA
:1001E000203271E07B04003A203471E06D04003A63
:1001F00000C0A0E38C0400EA0047104744332211FA
:1002000080BB0000491E084000D0012070477047A5
:1002100010B4002205E0002B02D1002010BC704772
:10022000521C835C8C5CA342F5D0805C895C401AD4
:10023000F4E730B40024220008E01D00303D092D11
:100240000BD80A256C43303C1C19521C835C002BD4
:10025000F3D100200C6030BC70470120FBE770B583
:100260000D00521E002114000028A9540DD1302089
:10027000641E28550DE0641E0A21FFF7ADFF092911
:1002800001D8303100E037312955002C01D0002849
:10029000F1D1281970BC08BC184708B546216A4638
:1002A000FF48FFF78CFFFF48FFF78DFFFC48462112
:1002B0006A46FFF784FFFB49F948FFF7A9FF01B041
:1002C00008BC1847F0B50F0015001E0000240028D8
:1002D00008D03900FFF7ADFF002803D00C20F0BC98
:1002E00008BC1847692D01D10020F8E738680421BF
:1002F000FFF788FF00280ED0642D01D106242DE0E1
:100300000D24672D01D1022428E0682D01D103249A
:1003100024E0002C22D1396801208007814205D3D6
:10032000E14A8819904201D8012000E00020012212
:100330005203914206D33F2289195203914201D8B8
:10034000012100E00021662D03D1084306D10E24CF
:1003500004E0672D02D1002800D104242000BEE76C
:10036000D24A1047602801D100207047203800068B
:10037000000E7047F0B50300002600783500FFF747
:10038000F1FF0400401E2C284BD85B1C47E0032CD7
:1003900025DB1878FFF7E6FF87005878FFF7E2FFC4
:1003A000000907430F705878FFF7DCFF07019878C2
:1003B000FFF7D8FF800807434F709878FFF7D2FF08
:1003C0008701D878FFF7CEFF07438F7008784F7802
:1003D000ED1CC0198F78BE198619C91C1DE0012CAF
:1003E0000CDB1878FFF7BEFF87005878FFF7BAFFDD
:1003F000000907430F7008786D1C8619022C0CDB6E
:100400005878FFF7AFFF07019878FFF7ABFF800838
:1004100007434F7048786D1C86191B1DE41E002C85
:10042000B5DC300015605AE7002801D16020704724
:1004300020300006000E7047F0B5030010060024BF
:10044000000EFFF7F1FF0870491C2DE0032A04DBC2
:100450009E785D781878341904E0022A05D15D7819
:1004600018782E004019041902E01D782E002C196E
:1004700018788008FFF7D8FF087018782F098007D0
:10048000800EC019FFF7D0FF48702807800EB5090D
:100490004019FFF7C9FF8870B006800EFFF7C4FF50
:1004A000C870091DDB1CD21E002ACFDC002008709A
:1004B000200014E7F0B57A4D85B09435A868029B0A
:1004C000642202A9FFF7FEFE04000DD16868029BBA
:1004D000672204A9FFF7F6FE0400042801D10E24C8
:1004E00002E0022C00D10D24714872494068884214
:1004F00005D1049801218907884200D21324296874
:100500000F222000FFF7ABFEFFF75DFE002C43D16A
:10051000029F049E25003CE0614846216A46FFF7A1
:100520004EFE002838D1009800280DD05C48049970
:100530006D1C01AAFFF71EFF041904990198091800
:1005400004910299081A0290142D02D002980028F2
:100550001FD100200090524846216A46FFF72FFE27
:1005600000990029F7D0002816D14D4803A9FFF7BC
:1005700060FE0398844204D14A48029F049E0A38D0
:1005800003E048480297C01F0496FFF71CFE0025B1
:100590002C0002980028BFDC05B0A0E6F0B5404D65
:1005A00085B09435A8686422002302A9FFF78AFE6B
:1005B000040006D16868029B662203A9FFF782FE49
:1005C000040029680F222000FFF749FEFFF7FBFD1A
:1005D000002CE1D102A881C800263400019036E049
:1005E0002D2D00DD2D252E4903982A00FFF724FF2D
:1005F00086192B48FFF7E7FD0128CDD10398641C2D
:10060000401903900298401B142C029001D000283E
:100610001DD123490F223000FFF721FEFFF7D3FD44
:100620001F4846216A46FFF7CAFD0028B4D11D497C
:100630001B480A39FFF7ECFD002803D10298039FFD
:10064000019002E0019802A981C100242600029DC8
:10065000002DC5DCA0E738B51548114D006894356C
:1006600000282CD16868662200236946FFF72AFE1D
:10067000040006D1A8680078542822D0412800D070
:100680000C2469680F222000FFF7E9FDFFF79BFDAE
:10069000002C04D100F0D5FD0098FFF7ADFD0BE074
:1006A000280000408615000000000140F1FFFF7F98
:1006B000000000407856341238BC08BC18470F249C
:1006C000DFE70098012108430090DAE738B5FD4CD8
:1006D0006922606800236946FFF7F4FD002808D10D
:1006E000F94A0099914203D1F84A0021116000E0D3
:1006F000102061680F22FFF7B2FDFFF764FDCEE71F
:1007000070B5F04C6922260014366068311D002354
:10071000FFF7D8FD250028350028286010D12100DA
:10072000A06869221C310023FFF7CCFD0028286057
:1007300006D132203060E64A29003000FFF75DFD27
:10074000616828680F22FFF78AFDFFF73CFDA1E5ED
:10075000F8B5DE4EDB4F31687868012903D10F22EE
:10076000010010003BE0D74D69221435291D0023FC
:10077000FFF7A8FD2C0014340028206011D12100BF
:10078000B86869220C390023FFF79CFD002820601F
:1007900007D12100F868692208390023FFF792FD8C
:1007A0002060CC497068884207D16868032109033A
:1007B000884202D2132020600EE0206800280BD16E
:1007C00033202860C448BF490068283128610800E8
:1007D000BF4A1438FFF711FD796820680F22FFF730
:1007E0003EFDFFF7F0FCF8BC08BC1847F8B5B74E63
:1007F000B44F31687868012903D10F22010010003D
:1008000048E0B04D69221435291D0023FFF75AFD39
:100810002C0014340028206007D12100B868692218
:100820000C390023FFF74EFD2060AC4A706813219D
:10083000904202D0AA4A904207D16868022802D1A9
:10084000A8681B280CD0216019E0A24A904207D169
:100850006868022804D1A8681B2801D0216016E02E
:10086000206800280BD1342028609B4895490068F7
:100870002831E8600800964A1438FFF7BEFC686823
:10088000022804D1A8681B2801D1964870607968B5
:1008900020680F22FFF7E3FCFFF795FCA3E770B594
:1008A000884C6922260014366068311D0023FFF74A
:1008B00009FD250028350028286010D12100A068F6
:1008C00069221C310023FFF7FDFC0028286006D1B7
:1008D000352030607E4A29003000FFF78EFC6168C9
:1008E00028680F22FFF7BBFCFFF76DFC286808287B
:1008F0001BD1764877494068884205D077498842BD
:1009000002D07749884202D100206860A8606168FF
:1009100068680F22FFF7A3FCFFF755FC6168A86821
:100920000F22FFF79CFCFFF74EFCB3E470B5654C5B
:100930006922260014366068311D0023FFF7C2FCCF
:1009400025002835002828601AD12100A0686922D6
:100950001C310023FFF7B6FC0028286010D12100CD
:10096000E068692220310023FFF7ACFC00282860F2
:1009700006D138203060564A29003000FFF73DFC90
:10098000616828680F22FFF76AFCFFF71CFC2868E3
:100990000A2806D1616868680F22FFF760FCFFF73C
:1009A00012FC77E4FFB584466146097800209E4634
:1009B000099D03000400002901D104B08FE4002147
:1009C000AD1E1CE0461C76451CDC6646765C202E7F
:1009D00007D0AC4205DA8700D759FE545B1C641C73
:1009E0000CE0664676187678202E01D1AC4205D10F
:1009F000860096590024401CF4542300491C019E93
:100A0000B142DFDD401CD8E73749086170473649FD
:100A1000486170470120400300472A4810B535213E
:100A2000143001600221416081600100284A1431C4
:100A3000FFF7E3FB234828300068002800D001209E
:100A400010BC08BC184729480068000401D50120E3
:100A500070470020704770B51A4C1D4A2068037813
:100A6000200014300500433B143500F079FD156576
:100A700071687112716B1841716E717162710F71D1
:100A80007115710C7100FFF715FD03E4FFF786FD8A
:100A90005DE6FFF7E0FD5AE6FFF718FE57E6362160
:100AA00001600849283108001438FFF7A6FB616887
:100AB00028680F22FFF7D3FBFFF785FB61686868A2
:100AC00031E00000BC0000405A5A00000000004025
:100AD000F1FFFF7F78563412000200002143658742
:100AE000658721434433221100F0FFFF008002E0BC
:100AF000372101604A4908001438FFF77EFB61681E
:100B000028680F22FFF7ABFBFFF75DFB68686168A1
:100B10000006000E0F22FFF7A2FBFFF754FB6868E8
:100B200061680004000E0F22FFF799FBFFF74BFBF3
:100B30000DE6FFF7E5FD0AE6FFF70AFE07E6FFF719
:100B400055FE04E6FFF7ABFE01E6FFF7EFFEFEE51C
:100B50000F2261680120E7E7FEB5324801210160FC
:100B60002F49324E76390D004E3529600F316960BC
:100B70000F31A9600F31E9600F3129612A492C4FEB
:100B800009680124416026484621BC3801AAFFF7C4
:100B900016FB002840D17A218200AA58401C052863
:100BA0001170F9DB0F2200921D4A0199283A1000BA
:100BB00094380523FFF7F6FE0028E4D02968097869
:100BC000522903D0472901D04D2901D1012207E044
:100BD0000022572901D0432901D1012400E000243B
:100BE0001049144B4968994203D0B14201D0B9422F
:100BF00009D1012A07D169680F221320FFF72FFBC3
:100C0000FFF7E1FABFE7B14201D0B94201D1012CAF
:100C1000F1D0FFF720FFB6E7FEBC08BC1847000084
:100C2000E400004000000040FC0100002143658713
:100C30006587214378563412FF2201321043FA4A65
:100C40009062D162002005210904536BDB0702D0BA
:100C5000401C8842F9D37047F349FF300130886265
:100C6000012048620020052212044B6BDB0702D0F2
:100C7000401C9042F9D300204862086B0004000C2D
:100C80007047EA4A91680888891C9160704710B5DE
:100C90000C00030006E0FFF7F4FF18809B1CA41E65
:100CA0002404240C012CF6D8002C02D0FFF7E9FF15
:100CB000187010BC08BC184710B40022835C8C5C10
:100CC000A34202D0002010BC7047521C062AF5DB5C
:100CD0000120F8E730B5D54C2078002813D0D44D4A
:100CE00021001A31A81DFFF7E7FF002807D0A88CC4
:100CF000A188884203D1688CE188884203D0002013
:100D000030BC08BC18470120FAE7C84BD9688A1CD8
:100D10000880DA60704730B50400C648491C0140BD
:100D20000D0004E02088A41CFFF7EFFFAD1E002D8E
:100D3000F8D1E5E710B400230FE00288012902D1C1
:100D40001206120EFFE714061204240C120E1443AE
:100D5000E318801C891E090409140029EDDC180C15
:100D6000C018C0430004000CADE7F0B5AF49002047
:100D70000870B14948680122920710434860AF48A3
:100D8000C16BAF4AAF48914201D1AF4900E0AF49D2
:100D90008160C16809090901491DC160A24CCF20C9
:100DA00000022060AA483821016064256D1EFDD133
:100DB0000221216030216160A6496161A64921615B
:100DC0001226E660A248710101600121C9030020DA
:100DD000FFF732FF01273F050020FFF73DFF00042A
:100DE00002D56D1CBD42F7D39C4820620020401CF8
:100DF0004028FCD3206A0121C903884320620020D7
:100E000060620220FFF728FF05000320FFF724FFA0
:100E1000884A29040E3A10400143914881420DD17D
:100E2000032109030020FFF707FF00250120FFF73A
:100E300013FF800602D46D1CBD42F7D300250127A5
:100E40003F041020FFF708FFC10702D16D1CBD420F
:100E5000F7D341070CD561680122114361607C49D9
:100E60000A6801239B021A430A601521A16000E071
:100E7000A660800701D5002001E0FF200130A061BD
:100E8000694878494030016077494160774981601D
:100E900066480C21143001701D214170E0218670DC
:100EA000C1701F210171724F10214171704B0020E0
:100EB000C0370500782141436E4A8E18C100CA1818
:100EC00016606D4EC9195660401C8D601928CD60A2
:100ED000F0D35F4EB3606648C830F06018203061D0
:100EE000B561644B654F0020343B78214143CA19FA
:100EF000C100C918103124C18100C918401C032841
:100F00008D62F2D35B482438F0615A480C38306265
:100F100002207062B5625A4820210160474888214A
:100F200041624449491C81623068032108433060B2
:100F300020680121084320603D4808217830017372
:100F4000452145738173D821C5738174F421C1741F
:100F500005758021457581751121C175F0BC08BCEE
:100F60001847F7B5002400F077F94649384F411883
:100F70002E4801611CE044492000641C88420DDDBC
:100F8000424800244169090604D5C1698022114301
:100F9000C16103E0816980221143816123480069B6
:100FA00000F05EF9002803D00120FEBC08BC184701
:100FB000B86979698842DED0BD692D49E800C03141
:100FC000411889680A0205D56D1C192D00D100252C
:100FD000BD61EDE74905490DC91E0E042449360CD3
:100FE000401800681149886011483100FFF74FFE32
:100FF0006D1C192D00D10025BD61FFF76BFE002887
:10100000D6D0019930002A38884203DD08002A3002
:101010000604360C0649320000982A3A2A3100F0BC
:1010200041F900203DE000000000E0FF0800004022
:10103000F8000040FEFF0000C0C01FE0C00FE0FF4E
:101040000020023900C002E00511155005011550BD
:101050000001E0FFF20500000F37000018800000DB
:10106000905C00201F10000012E000000C1D00002A
:101070000000E07FB401E07F770000806C0DE07F2E
:101080000002E0FF60EA0000400D030040C0FF3FA7
:101090000099095C0D2903D1009900220A5403E04C
:1010A000401C01998842F3D30299086000F0D4F8FB
:1010B0005749411857480161002076E7F8B5564C6A
:1010C0000021435C621820329372425C002A06D1F0
:1010D00060180D22203082720A22C27202E0491C7E
:1010E0004629EEDB891C4B480F043F0C47804B48D8
:1010F000856A4B48E9000818464A0169464ED160A6
:101100004849783E7918416143480622B11D00F0F4
:10111000C9F8404906221431A01D00F0C3F81C375D
:1011200039043802090E084331001A3120820800C0
:1011300004227C3000F0B6F831001E310800042291
:10114000743000F0AFF80020208330008630142186
:101150008446FFF7EFFD070214216046FFF7EAFD22
:101160000004000E07432783708CA084B08C608439
:10117000284840880100083002020004000E0243A3
:101180000020E284208524482A31FFF7C4FD6D1C2D
:10119000032D00D1002521488562F8BC08BC012040
:1011A000184730B51B4D1C4C002089B0783C287086
:1011B000012108AA04A8FFF7D4FE0028F8D16B4645
:1011C000187C3F28F4D1A08C0622A11DA880608C39
:1011D000E88010481A3000F065F81348FFF76EFFFA
:1011E0000F2108AA04A8FFF7BCFE0F490D2268468C
:1011F00000F058F8694604A8FFF70AF80028D7D18C
:101200000948C01EFFF75AFF0120287009B077E592
:1012100060EA000008000040700100400001E0FFAB
:101220008001E07F2A000040961500001B48002145
:1012300001631A481A4A4038C26041610121416085
:1012400070471649002040394860144A1063C8604E
:10125000486188600861704710484038806870476E
:101260000E49403989680122D207814203D9081A00
:10127000904205D202E0401A904201D3012070470B
:1012800000207047054900B5403989680B181800DF
:10129000FFF7E6FF0028FAD008BC1847404000E0FE
:1012A000DF2E00007847C046030052E32A00009A70
:1012B00003C010E20800000A0130D1E402005CE340
:1012C0000C2082E001C0D1940130C0E40130D1345F
:1012D00001C0C094042042E20130C034033011E266
:1012E0008500000A042052E21B00003A03C031E7E7
:1012F000020053E30800000A0F00008A2C34A0E12A
:1013000004C0B1E5042052E20C3C83E1043080E4E7
:10131000F9FFFF2A011081E20F0000EA2C38A0E15A
:1013200004C0B1E5042052E20C3883E1043080E4CB
:10133000F9FFFF2A021081E2070000EA2C3CA0E13D
:1013400004C0B1E5042052E20C3483E1043080E4AF
:10135000F9FFFF2A031081E20000A0E1822FB0E133
:101360000130D12401C0D1240120D1440130C02456
:1013700001C0C0240120C0441EFF2FE1013090E1D4
:101380002100004A0020B0E3A03071E01A00003ACA
:10139000203271E00F00003A203471E00100003A81
:1013A00000C0A0E3200000EAA03371E081034020E8
:1013B0000220B2E0203371E0010340200220B2E0BD
:1013C000A03271E0810240200220B2E0203271E0C0
:1013D000010240200220B2E0A03171E081014020F2
:1013E0000220B2E0203171E0010140200220B2E091
:1013F000A03071E0810040200220B2E0011050E0F6
:101400000010A0310200A2E01EFF2FE1022111E234
:101410000010614240C032E000006022203271E0E2
:101420001D00003A203471E00F00003A0113A0E1E2
:10143000203471E03F2382E30B00003A0113A0E166
:10144000203471E03F2682E30700003A0113A0E157
:10145000203471E03F2982E30113A0213F2C822335
:10146000003071E21D00002A2113A021A03371E099
:10147000810340200220B2E0203371E001034020CC
:101480000220B2E0A03271E0810240200220B2E0EE
:10149000203271E0010240200220B2E0A03171E070
:1014A000810140200220B2E0203171E001014020A2
:1014B0000220B2E0EBFFFF2AA03071E08100402063
:1014C0000220B2E0011050E00010A0310200A2E0C2
:1014D000CCCFB0E100006042001061221EFF2FE17E
:1014E000CCCFB0E10000604201402DE90000B0E344
:1014F0000000A0E10240BDE81EFF2FE110402DE9F1
:10150000202052E20500003A1850B1E8202052E2B3
:101510001850A0E81850B1E81850A0E8F9FFFF2AC9
:1015200002CEB0E11850B1281850A0281800B148D8
:101530001800A0481040BDE802CFB0E1043091246B
:10154000043080241EFF2F01822FB0E1B230D12061
:101550000120D144B230C0200120C0441EFF2FE141
:101560007847C04601C05EE50C0053E10330DE372A
:101570000C30DE2783C08EE01CFF2FE14F4B005262
:101580004553454E440053796E6368726F6E697AB5
:101590006564004F4B0053796E6368726F6E697AB1
:1015A0006564000000000000000000000000000072
:1015B000000000000000000000000000000000002B
:0C15C0000000000000000000000000001F
:0400000500000000F7
:00000001FF
