:020000040000FA
:10000000503400106101000065010000670100002C
:10001000690100006B0100006D010000000000009C
:100020000000000000000000000000006F01000060
:100030007101000000000000730100007501000064
:1000400077010000770100007701000077010000D0
:1000500077010000770100007701000077010000C0
:1000600077010000770100007701000077010000B0
:1000700077010000770100007701000077010000A0
:100080007701000077010000770100007701000090
:100090007701000077010000770100007701000080
:1000A0007701000077010000770100007701000070
:1000B0007701000077010000770100007701000060
:1000C0007701000000F002F800F03CF80AA090E888
:1000D000000C82448344AAF10107DA4501D100F003
:1000E00031F8AFF2090EBAE80F0013F0010F18BF94
:1000F000FB1A43F0010318470C1800002C180000ED
:10010000103A24BF78C878C1FAD8520724BF30C843
:1001100030C144BF04680C60704700000023002415
:1001200000250026103A28BF78C1FBD8520728BF07
:1001300030C148BF0B6070471FB5AFF300801FBDD3
:1001400010B510BD01F090FB1146FFF7F5FF00F070
:1001500074F801F0AEFBFFF7F3FF01F0B5FB000010
:1001600008480047FEE7FEE7FEE7FEE7FEE7FEE79A
:10017000FEE7FEE7FEE7FEE703480449024A044BB8
:10018000704700003B020000503200105034001055
:100190005032001010B521480168AA2221F0020156
:1001A0000160C2605523C36000210160C260C3606A
:1001B0002021C0F820118038D0F8A0118909C90782
:1001C000FAD001218030C0F88C10154C4460C26018
:1001D000C3600160C260C3600324C0F884408038FB
:1001E000D0F88810890EC907FAD040F8804FC26055
:1001F000C3608038D0F88810490EC907FAD010BD06
:1002000070477047704710B5FFF7C4FF00F02EF835
:10021000BDE81040642000F05DB8000080C00F40D1
:100220003F00050010B5FFF7EEFF00F016F800BF25
:1002300000F019F800F01CFDFAE710B500F04AFCD8
:1002400038B100F05AFC10B100F041FC01E0FFF7BA
:10025000E9FFFFF7E7FF012010BD00F01FBE00F02F
:1002600038BF01F071B801F00AB900001F480168F9
:1002700001F00C0101600268002142F004020260FA
:100280004FF0402001674FF6FF12C260416101212B
:100290004160704700204FF0402148600867C86007
:1002A00048618860086170474FF04020806870475F
:1002B0004FF0402189684FF00042814203D9081A6B
:1002C000904205D202E0401A904201D301207047CB
:1002D0000020704700B54FF0402189680B18184680
:1002E000FFF7E6FF0028FAD000BD0000A8C10F40CC
:1002F0007047704770477047000000004433221178
:10030000491E084000D001207047704710B50022F8
:1003100003E00BB9002010BD521C835C8C5CA3422F
:10032000F7D0805C895C401A10BD70B5002422466D
:100330006FF02F050AE000BFA3F13006092E0BD89D
:1003400004EB840405EB44041C44521C835C002B26
:10035000F2D100200C6070BD012070BD10B50023EB
:10036000521E8B540A2478B93020521E88540EE055
:10037000B0FBF4F304FB1300521E092801D83030FF
:1003800000E03730885418460AB10028F0D18818A8
:1003900010BD08B56A464621FF48FFF760FFFF48D9
:1003A000FFF75FFF6A464621FB48FFF758FFFB490E
:1003B000F948FFF7ABFF08BDF0B50F4615461E46DE
:1003C000002428B13946FFF7B0FF08B10C20F0BD7A
:1003D000692D01D10020F0BD04213868FFF790FF9E
:1003E00068B1642D01D1062428E00D24672D01D1C8
:1003F000022423E0682D01D103241FE0F4B93968F9
:10040000B1F1805F05D3E64A8819904201D80120F6
:1004100000E00020B1F5005F05D33144B1F5002FB5
:1004200001D8012100E00021662D03D1084305D148
:100430000E2403E0672D01D100B904242046F0BD4D
:10044000D84A1047602801D1002070472038C0B238
:100450007047F0B50346002635460078FFF7F2FFF7
:100460000446401E2C284CD85B1C48E0032C26DB9D
:100470001878FFF7E7FF87005878FFF7E3FF47EAB0
:10048000101008705878FFF7DDFF07019878FFF724
:10049000D9FF47EA90004870D878FFF7D3FF0746A6
:1004A0009878FFF7CFFF47EA8010887008784F7878
:1004B000ED1C38448F78C91C3E4406441DE0012CD5
:1004C0000CDB1878FFF7BEFF87005878FFF7BAFFFC
:1004D00047EA10100870C0B26D1C0644022C0CDBF9
:1004E0005878FFF7AFFF07019878FFF7ABFF47EAAF
:1004F00090004870C0B26D1C06441B1DE41E002C09
:10050000B4DC30461560F0BD08B96020704720307B
:10051000C0B2704770B503460024D0B2FFF7F4FFB5
:1005200001F8010B2DE0032A04DB9E785D78187832
:10053000344404E0022A05D15D7818782E46284418
:10054000044402E01D782E462C4418788008FFF7FA
:10055000DBFF087018788007800E00EB1510FFF79E
:10056000D3FF48702807800E00EB9610FFF7CCFFF2
:10057000887006F03F00FFF7C7FFC870091DDB1C3D
:10058000D21E002ACFDC00200870204670BDF0B5D6
:10059000814D85B09435A868642202A9029BFFF7BB
:1005A0000BFF04000DD16868672204A9029BFFF7C6
:1005B00003FF0446042801D10E2402E0022C00D1DE
:1005C0000D24794879494068884204D10498B0F1F3
:1005D000805F00D213240F2220462968FFF7BEFE59
:1005E000FFF73FFE002C41D12546029F049E3AE0D2
:1005F0006A4646216848FFF732FE002836D1009847
:1006000068B16D1C01AA64480499FFF722FF0444F5
:1006100004990198014404910299081A0290142D3A
:1006200001D00298F8B9002000906A4646215A4845
:10063000FFF715FE00990029F7D0002816D103A96D
:100640005548FFF772FE0398844204D15348029F35
:100650000A38049E03E051480297C01F0496FFF732
:1006600000FE00252C4602980028C1DC05B0F0BD34
:100670002DE9FE43484D00239435642201A9A86862
:10068000FFF79AFE040006D16868662202A9019B62
:10069000FFF792FE04460F2220462968FFF75EFE10
:1006A000FFF7DFFD002C3CD1DDE9010700263446D1
:1006B000804634E02D2D00DD2D252A46364902984E
:1006C000FFF728FF06443448FFF7CBFD012828D167
:1006D0000298641C284402900198401B0190142C3D
:1006E00000D0E0B90F222C493046FFF737FEFFF764
:1006F000B8FD6A4646212848FFF7B1FD002810D111
:10070000264925480A39FFF701FE18B90198029FCA
:10071000804602E0CDE90187404600242646051EBA
:10072000C8DCBDE8FE8338B51F481B4D0068943512
:1007300080B90023662269466868FFF73DFE040021
:100740000BD1A8680078542806D1009840F0010029
:10075000009002E00F2400E00C240F22204669687C
:10076000FFF7FCFDFFF77DFD002C03D1FFF792FDA5
:100770000098804738BD38B5074C0023943469226F
:1007800069466068FFF718FEB0B90099A1F5B44258
:100790005A3A10D100210BE02C300010E61800006E
:1007A00000800010F11FFF1F003000107856341237
:1007B000FB4A116000E010200F226168FFF7CEFDB8
:1007C000FFF74FFD38BD70B5F64C002304F1140659
:1007D0006922311D6068FFF7EFFD04F128052860EC
:1007E00070B90023692204F11C01A068FFF7E4FD41
:1007F000286028B93220EC4A3060294630469047BC
:1008000061680F222868FFF7A9FDBDE87040FFF777
:1008100028BD2DE9F041E24FE24E396870680129A8
:1008200003D10F220146104636E0DE4D0023143579
:100830006922291DFFF7C0FD05F11404206080B96D
:1008400000236922A4F10C01B068FFF7B5FD206018
:1008500038B900236922A4F10801F068FFF7ACFD64
:100860002060D2497868884206D16868B0F5405F58
:1008700002D2132020600CE0206850B93320286099
:10088000C8494FF47A40C84A28312861A1F11400C0
:10089000904771680F222068FFF760FDBDE8F041C6
:1008A000FFF7DFBC2DE9F041BD4FBE4E39687068DF
:1008B000012903D10F220146104646E0B94D00231D
:1008C00014356922291DFFF777FD05F11404206016
:1008D00038B900236922A4F10C01B068FFF76CFD60
:1008E0002060B34A78681321904203D04FEA324225
:1008F000904207D16868022802D1A8681D280CD050
:10090000216017E0A94A904207D16868022804D103
:10091000A8681D2801D0216014E0206850B9342057
:100920002860A0494FF47A409F4A2831E860A1F13D
:10093000140090476868022804D1A8681D2801D1D6
:100940009C48786071680F222068FFF707FDBDE8BA
:10095000F041FFF786BC70B5924C002304F11406F9
:100960006922311D6068FFF727FD04F12805286022
:1009700070B90023692204F11C01A068FFF71CFD77
:10098000286028B93520884A30602946304690478B
:1009900061680F222868FFF7E1FCFFF762FC286816
:1009A00008281ED17E4881494068884206D0804987
:1009B000884203D04FEA3141884202D1002068606A
:1009C000A86061680F226868FFF7C8FCFFF749FC60
:1009D00061680F22A868FFF7C1FCBDE87040FFF70F
:1009E00040BC70BD70B56F4C002304F11406692241
:1009F000311D6068FFF7E0FC04F128052860B8B9F4
:100A00000023692204F11C01A068FFF7D5FC2860CF
:100A100070B90023692204F12001E068FFF7CCFCE3
:100A2000286028B93820604A30602946304690470F
:100A300061680F222868FFF791FCFFF712FC286815
:100A40000A2808D161680F226868FFF787FCBDE8B3
:100A50007040FFF706BC70BD2DE9F04106468846A0
:100A600000203178069F0446054609B9BDE8F081AB
:100A70000021BF1E23E000BF00F1010C9C4520DCDB
:100A800016F801C0BCF1200F08D0BD4206DA52F8BA
:100A900020E00EF804C0641C6D1C0FE006EB010C96
:100AA0009CF801C0BCF1200F01D1BD4206D1002548
:100AB00052F820C0401C0CF804502C46491C4145FB
:100AC000DADD401CD2E762B6704772B6704742F278
:100AD00001000047334810B5352114300160022170
:100AE0004160314A816000F1140190472D4828305F
:100AF0000068002800D0012010BD2F484069000484
:100B000001D50120704700207047264910B53620D6
:100B100014310860244A1431A1F11400904721488F
:100B2000252128304068B1EB106F01D1012010BDA4
:100B3000002010BD70B51B4C1B4A2068017804F1E1
:100B40001400433900F11405152977D2DFE801F0CC
:100B5000808C838C118C86175C8C89368C7D8C0EF6
:100B60008C8C148C0B00BDE8704010E5BDE8704023
:100B70007EE5BDE87040D6E5BDE87040FBE5362176
:100B8000016008492831A1F11400904761680F22E3
:100B90002868FFF7E3FBFFF764FB6168686831E0F2
:100BA00000300010C0300010F11FFF1F78563412C3
:100BB000214365874433221100C009203A21016096
:100BC0005F49A1F11400904761680F222868FFF780
:100BD000C5FBFFF746FB61680F226868FFF7BEFBA5
:100BE000FFF73FFB61680F22A868FFF7B7FBFFF72D
:100BF00038FB61680F22E868FFF7B0FBFFF731FBB5
:100C0000616828690F221AE0372101604C49A1F17F
:100C10001400904761680F222868FFF79FFBFFF7D9
:100C200020FB68686168C0B20F22FFF797FBFFF7EF
:100C300018FB68686168C0F30720E3E714E0FFF77A
:100C40008DFBBDE87040FFF70CBBBDE87040BAE516
:100C5000BDE87040DDE5BDE8704023E6BDE87040CA
:100C600079E6BDE87040BDE60F2201206168E6E745
:100C70002DE9FC41DFF8CC800121C8F80010304993
:100C8000324E763901F14E0529600F3169600F311E
:100C9000A9600F31E9600F3129612B4901240968EE
:100CA0004FEA3647C8F80410254801AA4621BC3847
:100CB000FFF7D5FA002841D15FF07A0155F82020DE
:100CC000401C11700528F9DB1D4A0F230093283AB8
:100CD0000523A2F194000199FFF7BEFE0028E3D09E
:100CE00029680978522903D0472901D04D2901D11B
:100CF000012207E00022572901D0432901D1012414
:100D000000E00024124BD8F80410994203D0B142FD
:100D100001D0B94209D1012A07D10F2213206968F5
:100D2000FFF71CFBFFF79DFABEE7B14201D0B942C5
:100D300001D1012CF1D0FFF7FDFEB5E7BDE8FC8144
:100D4000E830001000300010FC02000021436587ED
:100D500078563412FF4A9268012A01D100F07ABC19
:100D600040F480704FF0A0429062D16200201313D3
:100D7000516BC90702D0401C9842F9D3704710B597
:100D8000F4498968012902D100F037FC11E040F4F0
:100D900080704FF0A04188620120486200200B1350
:100DA0004A6BD20702D0401C9842F9D30020486217
:100DB000086B80B210BDE74AD16831F8020BD160F0
:100DC000704710B50C46034606E000BFFFF7F3FF7F
:100DD000A41E23F8020BA4B2012CF7D8002C02D0D9
:100DE000FFF7E9FF187010BD10B50022835C8C5C22
:100DF000A34201D0002010BD521C062AF6DB0120C0
:100E000010BD70B5D34C2078002817D0D24D04F116
:100E10001E01A81DFFF7E8FF08B9D0A00AE0A88CC2
:100E2000A188884201D0D8A004E0688CE18888427B
:100E300004D0E3A000F07AFC002070BD012070BD5A
:100E4000C44B19698A1C08801A61704730B5044682
:100E5000491C4FF6FE7001EA000504E034F8020B6D
:100E6000FFF7EEFFAD1E002DF8D130BD10B5002309
:100E70000DE00288012901D1D2B2FFE7D4B2C2F35A
:100E80000722801C42EA0422891E134409B2002969
:100E9000EFDC03EB1340C04380B210BD2DE9F047F7
:100EA000AC4D0026D24F2E70386C40F040003864B4
:100EB0004FF4614000F005FCCEA000F037FCDB48A9
:100EC000016841F080410160DA4CD948A060FFF729
:100ED0001CFE50B10120A860206920F47020206120
:100EE000386C40F48070386405E0AE60E06820F053
:100EF0000F00401DE0604FF44F404FF0A0452860C8
:100F00003820C5F800016424641EFDD14FF00209A9
:100F1000C5F800903020686040F2F250686143F2FA
:100F20000F7028611227EF607801C5F800014FF4B7
:100F300000410020FFF70EFF4FF480180020FFF75C
:100F40001EFF000402D5641C4445F7D348F2180084
:100F500028620020401C4028FCD3286A20F400406E
:100F600028626E620220FFF70AFF04460320FFF7A3
:100F700006FF4FF6F0710840AF4940EA044088424E
:100F80000DD14FF440510020FFF7E4FE0024012072
:100F9000FFF7F5FE800602D4641C4445F7D3002415
:100FA0004FF480381020FFF7EAFEC10702D1641C1D
:100FB0004445F7D341070CD5696841F001016960E8
:100FC000D5F80021152142F48062C5F80021A960FE
:100FD00000E0AF60800701D5AE6102E04FF48070A1
:100FE000A86141F21F0028644EF21200686441F6C5
:100FF0000C50A86457480C21183001701D21417015
:101000008770E021C1701F210171102141718B4B4C
:101010008B4C8C4A002000BFC0EB001103EBC107D2
:1010200002EBC001C1F8C860C1E90074401CC1F8FE
:10103000CC601928F0D3C5F808218248C830C5F81B
:101040000C011820C5F81001C5F818617E4B00206E
:10105000C0EB001103EBC10402EBC00101F5C87144
:1010600050C102EB8001401CC1F8A8610328EFD3F6
:1010700072482438AC35286770480C386867C5F862
:101080007890EE672020C5F854018820C5F8380F05
:101090004FF6FF70C5F83C0F686D40F003006865BF
:1010A00055F8AC0D082140F0010028602A4878303E
:1010B0000173467345218173C673D8218174F4216D
:1010C000C17406754675802181751121C175BDE811
:1010D000F0872DE9F05F0546894693460024FFF727
:1010E000E3F84EF66021DFF86CA001444FF0A04811
:1010F000CAF814101DE020465449641C88420DDDD6
:101100003B480024416D490604D5C16D41F04001C2
:10111000C16503E0816D41F040018165DAF814009A
:10112000FFF7C6F828B14AA000F000FB0120BDE897
:10113000F09FD8F818114046D8F814219142DAD01F
:10114000D0F8187180463F4800EBC700D0F8C810AF
:101150000A0297E008300010FC3000104672616D02
:10116000652066726F6D20646966666572656E746F
:10117000204D41433A2046696C7465726564206F66
:101180007574210A000000005061636B657420666D
:10119000726F6D20646966666572656E7420446561
:1011A0007374696E6174696F6E20506F72743A2047
:1011B00046696C7465726564206F7574210A00005D
:1011C0005061636B657420746F2064696666657234
:1011D000656E7420536F7572636520506F72743A38
:1011E0002046696C7465726564206F7574210A000D
:1011F00000C0092045746865726E6574205365638C
:101200006F6E6461727920426F6F746C6F61646598
:10121000723A2054617267657420696E2064656259
:101220007567206D6F64650A00000000C4C00F4040
:101230000501155000C00240905C0020B441001030
:1012400077000080004000106C4D0010400D03003E
:1012500054696D6564206F7574202D20676F696E09
:1012600067206261636B20746F206C6F6F6B696EB7
:101270006720666F722068616E647368616B650ACF
:101280000000000009D5B2A000F050FA7F1C192F11
:1012900000D10027C8F818714BE7C1F30A01C91E35
:1012A00000688EB2CAF80C003146AD48FFF789FDE0
:1012B0007F1C192F00D10027C8F81871FFF7A1FD76
:1012C0000028E9D0A6F12A00484502DD09F12A00EC
:1012D00086B2A349A6F12A022A31284600F04CFA28
:1012E000002006E0295C0D2902D10021295402E0EA
:1012F000401C4845F6D3CBF800009AA000F016FA3F
:101300003C2E03D999A000F011FA11E000242646E2
:101310000AE0A85D00F027FA641C102C03D1002419
:1013200095A000F003FA761CDBF80000B042F0D87C
:1013300093A000F0FBF9FEF7B7FF4EF660210144E1
:101340000020CAF81410F2E62DE9F0470646844C56
:1013500000207834315C221882F82A10315C31B9CF
:101360000D22211801F82A2F0A224A7002E0401C9F
:101370004628EFDBDFF82082801CA8F8020087A057
:1013800000F0D4F900252F460AE0F05D00F0EBF9FB
:101390006D1C102D03D1002577A000F0C7F97F1C2C
:1013A000B8F80200801E8742EFDB75A000F0BEF99E
:1013B0004FF0A049D9F828517A48464600EBC500BD
:1013C000D0F89011C8F81010B8F80210DFF890812A
:1013D0002A3141F08041C0F89411062208F106013B
:1013E00008F1780000F0C8F96B4906221831A01DF9
:1013F00000F0C2F9708804221C30C0F3072141EAD2
:101400000020208208F11A0101F17C0000F0B4F9FB
:1014100008F11E01042201F1740000F0ADF94FF053
:10142000000C08F18600A4F818C014218246FFF7CA
:101430001DFDC0F3072714215046FFF717FD47EAAB
:1014400000202083B8F82200A084B8F8240060842B
:10145000718801F10800C0F3072242EA0020E0840D
:10146000A4F828C02A3108F17800FFF7EFFC6D1CC2
:10147000032D00D10025C9F82851012027E630B5F9
:10148000454C89B00020207008AA012104A8FFF76C
:1014900020FE0028F8D19DF810003F28F4D1304DEF
:1014A000A88CA080688CE0803FA000F03FF9A08865
:1014B000000A00F047F9A088C0B200F043F93CA050
:1014C00000F034F9E088000A00F03CF9E088C0B28E
:1014D00000F038F921A000F029F92F480622A91DB3
:1014E0001E3000F049F935A000F020F92A4D1E35D4
:1014F000687900F027F9287900F024F9E87800F0FD
:1015000021F9A87800F01EF9687800F01BF9287816
:1015100000F018F911A000F009F92C48FFF714FFAA
:1015200008AA0F2104A8FFF7D4FD0D222749684619
:1015300000F022F9694604A8FEF7E8FE0028A3D1CE
:101540002248C01EFFF700FF0120207009B030BD07
:10155000527820435243206572726F720A00000075
:10156000FC30001052783A20200000002E2E2E442D
:101570006174612E2E2E00000D0A202020202000F4
:101580000D0A2D2D2D2D2D2D2D2D2D2D2D2D2D2DCE
:101590002D2D2D2D2D0D0A000830001054783A20E5
:1015A0002000000000400010446573743A200000E1
:1015B0000A536F757263653A200000000A536F7515
:1015C000726365204D41433A20000000F618000088
:1015D00010B5C1F12002364B90404FF400745A15FB
:1015E00008E0002801DA9C6500E0DC659A65DA65B0
:1015F0004000491E0029F4D110BD70B52C4D0446A1
:10160000286C40F40070286420214FF0FF30FFF771
:10161000DFFF04210620FFF7DBFF05210120FFF794
:10162000D7FF05212046FFF7D3FF00F038F800244C
:10163000204669154FEA4404A965E9656A6D92057B
:1016400001D544F00104401C1028F3D300F027F822
:10165000204670BD70B5044615480D46016C41F436
:101660000071016420214FF0FF30FFF7B1FF04212A
:101670000520FFF7ADFF05210120FFF7A9FF052198
:101680002046FFF7A5FF02210846FFF7A1FF102122
:101690002846FFF79DFFBDE87040AFF30080044887
:1016A000026C411522F4007202648165C1657047C5
:1016B00000C009200A2801D2303000E03730C0B223
:1016C00070472949B1FBF0F12848026822F0C002B6
:1016D00002600368832243F04003036024480273DE
:1016E0000170090A0171027B012122F0800202735C
:1016F00001722048016841F05001016070471C48A8
:10170000017DC90701D0007870474FF0FF30704766
:1017100017490A2804D10A7D9206FCD50D220A70C9
:101720000A7D9206FCD5C0B20870704710B5044619
:101730000023E05CFFF7ECFFE05C002801D05B1CBD
:10174000F7E710BD00B503460009FFF7B3FFFFF749
:10175000DFFF03F00F00FFF7ADFFFFF7D9FF2020F9
:101760005DF804EBD4E7D3E700093D00A8C10F40C2
:1017700000C0004000C00240032A40F2318010F057
:10178000030C00F0158011F8013BBCF1020F62441C
:1017900098BF11F801CB00F8013B38BF11F8013BAD
:1017A000A2F1040298BF00F801CB38BF00F8013B5A
:1017B00011F0030300F02680083AC0F0098051F8C8
:1017C000043B51F804CB40F8043B40F804CBF3E76A
:1017D000121D5CBF51F8043B40F8043BAFF300809E
:1017E000D20724BF11F8013B11F801CB48BF11F813
:1017F000012B24BF00F8013B00F801CB48BF00F8E3
:10180000012B704710B5203AC0F00B80B1E818509A
:10181000203AA0E81850B1E81850A0E81850BFF4DA
:10182000F5AF5FEA027C24BFB1E81850A0E8185079
:1018300044BF18C918C0BDE810405FEA827C24BFCD
:1018400051F8043B40F8043B08BF7047D20728BF5B
:1018500031F8023B48BF11F8012B28BF20F8023BAA
:1018600048BF00F8012B7047754600F029F8AE46D6
:1018700005006946534620F00700854618B020B59C
:10188000FEF77AFCBDE820404FF000064FF000075D
:101890004FF000084FF0000B21F00701AC46ACE818
:1018A000C009ACE8C009ACE8C009ACE8C0098D4685
:1018B00070470446AFF300802046FEF74CFC000062
:1018C00000487047EC31001003494FF01800ABBEE0
:1018D0007047000023EAFFFF260002004F4B005232
:1018E0004553454E440053796E6368726F6E697A52
:1018F0006564004F4B0053796E6368726F6E697A4E
:101900006564000024190000003000102C00000065
:1019100000010000501900002C30001024040000C9
:101920001C0100000000000000000000000000009A
:1019300000000000000000000000000000000000A7
:101940000000000000000000000000000000000097
:04000005000000C532
:00000001FF
